{
  "_format": "hh-sol-artifact-1",
  "contractName": "MyCrowdsale",
  "sourceName": "contracts/MyCrowdsale.sol",
  "abi": [
    {
      "inputs": [],
      "stateMutability": "nonpayable",
      "type": "constructor"
    },
    {
      "anonymous": false,
      "inputs": [
        {
          "indexed": true,
          "internalType": "address",
          "name": "user",
          "type": "address"
        },
        {
          "indexed": false,
          "internalType": "uint256",
          "name": "amountDeposited",
          "type": "uint256"
        },
        {
          "indexed": false,
          "internalType": "uint256",
          "name": "amountReceived",
          "type": "uint256"
        }
      ],
      "name": "Invest",
      "type": "event"
    },
    {
      "inputs": [],
      "name": "admin",
      "outputs": [
        {
          "internalType": "address",
          "name": "",
          "type": "address"
        }
      ],
      "stateMutability": "view",
      "type": "function"
    },
    {
      "inputs": [],
      "name": "deposit",
      "outputs": [],
      "stateMutability": "payable",
      "type": "function"
    },
    {
      "inputs": [],
      "name": "mainTokenAddress",
      "outputs": [
        {
          "internalType": "address payable",
          "name": "",
          "type": "address"
        }
      ],
      "stateMutability": "view",
      "type": "function"
    },
    {
      "inputs": [
        {
          "internalType": "address payable",
          "name": "_mainTokenAddress",
          "type": "address"
        }
      ],
      "name": "setMainTokenAddress",
      "outputs": [],
      "stateMutability": "nonpayable",
      "type": "function"
    },
    {
      "inputs": [],
      "name": "treasuryAddress",
      "outputs": [
        {
          "internalType": "address payable",
          "name": "",
          "type": "address"
        }
      ],
      "stateMutability": "view",
      "type": "function"
    },
    {
      "inputs": [],
      "name": "weiRaised",
      "outputs": [
        {
          "internalType": "uint256",
          "name": "",
          "type": "uint256"
        }
      ],
      "stateMutability": "view",
      "type": "function"
    }
  ],
  "bytecode": "0x608060405234801561001057600080fd5b506001600081905580546001600160a01b03199081167378731d3ca6b7e34ac0f824c42a7cc18a495cabab1790915569021e19e0c9bab2400000600355600580549091163317905561065c806100676000396000f3fe6080604052600436106100655760003560e01c8063ce1f335c11610043578063ce1f335c146100ed578063d0e30db01461010d578063f851a4401461011557600080fd5b80634042b66f1461006a5780636809fedd14610093578063c5f956af146100b5575b600080fd5b34801561007657600080fd5b5061008060045481565b6040519081526020015b60405180910390f35b34801561009f57600080fd5b506100b36100ae366004610572565b610135565b005b3480156100c157600080fd5b506001546100d5906001600160a01b031681565b6040516001600160a01b03909116815260200161008a565b3480156100f957600080fd5b506002546100d5906001600160a01b031681565b6100b36101ce565b34801561012157600080fd5b506005546100d5906001600160a01b031681565b6005546001600160a01b031633146101945760405162461bcd60e51b815260206004820152601760248201527f4f6e6c792041646d696e2063616e20736574207468697300000000000000000060448201526064015b60405180910390fd5b600280547fffffffffffffffffffffffff0000000000000000000000000000000000000000166001600160a01b0392909216919091179055565b600260005414156102215760405162461bcd60e51b815260206004820152601f60248201527f5265656e7472616e637947756172643a207265656e7472616e742063616c6c00604482015260640161018b565b60026000553361023057600080fd5b348061023b57600080fd5b600061024682610518565b6004549091506102569083610547565b6004556001546040516000916001600160a01b03169034908381818185875af1925050503d80600081146102a6576040519150601f19603f3d011682016040523d82523d6000602084013e6102ab565b606091505b50509050806102fc5760405162461bcd60e51b815260206004820152601060248201527f5472616e73666572206661696c65642e00000000000000000000000000000000604482015260640161018b565b6002546040517f23b872dd000000000000000000000000000000000000000000000000000000008152306004820152336024820152604481018490526001600160a01b039091169081906323b872dd90606401602060405180830381600087803b15801561036957600080fd5b505af115801561037d573d6000803e3d6000fd5b505050506040513d601f19601f820116820180604052508101906103a19190610599565b6103ed5760405162461bcd60e51b815260206004820152601960248201527f446f6e2774206861766520656e6f7567682062616c616e636500000000000000604482015260640161018b565b6040517f095ea7b3000000000000000000000000000000000000000000000000000000008152336004820152602481018490526001600160a01b0382169063095ea7b390604401602060405180830381600087803b15801561044e57600080fd5b505af1158015610462573d6000803e3d6000fd5b505050506040513d601f19601f820116820180604052508101906104869190610599565b6104d25760405162461bcd60e51b815260206004820152601960248201527f446f6e2774206861766520656e6f7567682062616c616e636500000000000000604482015260640161018b565b604080513481526020810185905233917f4ae4bd7655e0d350876a23cd90c4227b13db560e34435c6a488150a9c844bf5f910160405180910390a2505060016000555050565b600061054161053a670de0b6b3a764000060035461055a90919063ffffffff16565b8390610566565b92915050565b600061055382846105b9565b9392505050565b600061055382846105d1565b600061055382846105f1565b600060208284031215610583578081fd5b81356001600160a01b0381168114610553578182fd5b6000602082840312156105aa578081fd5b81518015158114610553578182fd5b600082198211156105cc576105cc610610565b500190565b6000826105ec57634e487b7160e01b81526012600452602481fd5b500490565b600081600019048311821515161561060b5761060b610610565b500290565b634e487b7160e01b600052601160045260246000fdfea2646970667358221220dda375a5fe3d54eb9c17562b4044fab5801843750e388b729ce5b5fa1cd07d0664736f6c63430008040033",
  "linkReferences": {},
  "deployedLinkReferences": {}
}