{
  "contractName": "Hello",
  "abi": [
    {
      "inputs": [],
      "stateMutability": "nonpayable",
      "type": "constructor"
    },
    {
      "inputs": [],
      "name": "hello",
      "outputs": [
        {
          "internalType": "string",
          "name": "",
          "type": "string"
        }
      ],
      "stateMutability": "view",
      "type": "function",
      "constant": true
    },
    {
      "inputs": [],
      "name": "name",
      "outputs": [
        {
          "internalType": "string",
          "name": "",
          "type": "string"
        }
      ],
      "stateMutability": "view",
      "type": "function",
      "constant": true
    },
    {
      "inputs": [],
      "name": "owner",
      "outputs": [
        {
          "internalType": "address",
          "name": "",
          "type": "address"
        }
      ],
      "stateMutability": "view",
      "type": "function",
      "constant": true
    },
    {
      "inputs": [
        {
          "internalType": "string",
          "name": "_name",
          "type": "string"
        }
      ],
      "name": "setName",
      "outputs": [],
      "stateMutability": "nonpayable",
      "type": "function"
    },
    {
      "inputs": [],
      "name": "getName",
      "outputs": [
        {
          "internalType": "string",
          "name": "",
          "type": "string"
        }
      ],
      "stateMutability": "view",
      "type": "function",
      "constant": true
    },
    {
      "inputs": [
        {
          "internalType": "string",
          "name": "user",
          "type": "string"
        }
      ],
      "name": "sayHello",
      "outputs": [],
      "stateMutability": "nonpayable",
      "type": "function"
    }
  ],
  "bytecode": "0x608060405234801561001057600080fd5b50336000806101000a81548173ffffffffffffffffffffffffffffffffffffffff021916908373ffffffffffffffffffffffffffffffffffffffff1602179055506107c9806100606000396000f3fe608060405234801561001057600080fd5b50600436106100625760003560e01c806306fdde031461006757806317d7de7c1461008557806319ff1d21146100a35780638da5cb5b146100c1578063c3a9b1c5146100df578063c47f0027146100fb575b600080fd5b61006f610117565b60405161007c9190610571565b60405180910390f35b61008d6101a5565b60405161009a9190610571565b60405180910390f35b6100ab610237565b6040516100b89190610571565b60405180910390f35b6100c96102c5565b6040516100d69190610556565b60405180910390f35b6100f960048036038101906100f4919061044f565b6102e9565b005b6101156004803603810190610110919061044f565b610322565b005b6002805461012490610684565b80601f016020809104026020016040519081016040528092919081815260200182805461015090610684565b801561019d5780601f106101725761010080835404028352916020019161019d565b820191906000526020600020905b81548152906001019060200180831161018057829003601f168201915b505050505081565b6060600280546101b490610684565b80601f01602080910402602001604051908101604052809291908181526020018280546101e090610684565b801561022d5780601f106102025761010080835404028352916020019161022d565b820191906000526020600020905b81548152906001019060200180831161021057829003601f168201915b5050505050905090565b6001805461024490610684565b80601f016020809104026020016040519081016040528092919081815260200182805461027090610684565b80156102bd5780601f10610292576101008083540402835291602001916102bd565b820191906000526020600020905b8154815290600101906020018083116102a057829003601f168201915b505050505081565b60008054906101000a900473ffffffffffffffffffffffffffffffffffffffff1681565b806040516020016102fa9190610534565b6040516020818303038152906040526001908051906020019061031e92919061033c565b5050565b806002908051906020019061033892919061033c565b5050565b82805461034890610684565b90600052602060002090601f01602090048101928261036a57600085556103b1565b82601f1061038357805160ff19168380011785556103b1565b828001600101855582156103b1579182015b828111156103b0578251825591602001919060010190610395565b5b5090506103be91906103c2565b5090565b5b808211156103db5760008160009055506001016103c3565b5090565b60006103f26103ed846105b8565b610593565b90508281526020810184848401111561040e5761040d61074a565b5b610419848285610642565b509392505050565b600082601f83011261043657610435610745565b5b81356104468482602086016103df565b91505092915050565b60006020828403121561046557610464610754565b5b600082013567ffffffffffffffff8111156104835761048261074f565b5b61048f84828501610421565b91505092915050565b6104a181610610565b82525050565b60006104b2826105e9565b6104bc81856105f4565b93506104cc818560208601610651565b6104d581610759565b840191505092915050565b60006104eb826105e9565b6104f58185610605565b9350610505818560208601610651565b80840191505092915050565b600061051e600683610605565b91506105298261076a565b600682019050919050565b600061053f82610511565b915061054b82846104e0565b915081905092915050565b600060208201905061056b6000830184610498565b92915050565b6000602082019050818103600083015261058b81846104a7565b905092915050565b600061059d6105ae565b90506105a982826106b6565b919050565b6000604051905090565b600067ffffffffffffffff8211156105d3576105d2610716565b5b6105dc82610759565b9050602081019050919050565b600081519050919050565b600082825260208201905092915050565b600081905092915050565b600061061b82610622565b9050919050565b600073ffffffffffffffffffffffffffffffffffffffff82169050919050565b82818337600083830152505050565b60005b8381101561066f578082015181840152602081019050610654565b8381111561067e576000848401525b50505050565b6000600282049050600182168061069c57607f821691505b602082108114156106b0576106af6106e7565b5b50919050565b6106bf82610759565b810181811067ffffffffffffffff821117156106de576106dd610716565b5b80604052505050565b7f4e487b7100000000000000000000000000000000000000000000000000000000600052602260045260246000fd5b7f4e487b7100000000000000000000000000000000000000000000000000000000600052604160045260246000fd5b600080fd5b600080fd5b600080fd5b600080fd5b6000601f19601f8301169050919050565b7f48656c6c6f20000000000000000000000000000000000000000000000000000060008201525056fea264697066735822122047001fcf88796912cdf93ac6cf1050b06f73ff85a0966807bdff671e535a2ca564736f6c63430008060033",
  "immutableReferences": {},
  "source": "// SPDX-License-Identifier: MIT\npragma solidity ^0.8.6;\n\ncontract Hello {\n    address public owner;\n    string public hello;\n    string public name;\n\n    constructor() { \n        owner = msg.sender;\n        // hello = \"Hello world\";\n    }\n\n    function setName(string memory _name) public {\n        name = _name;\n    }\n\n    function getName() public view returns(string memory) {\n        return name;\n    }\n\n    function sayHello(string memory user ) public {\n        hello = string(abi.encodePacked(\"Hello \", user));\n    }\n\n\n}",
  "sourcePath": "/mnt/f/Coding/github_repos/ethio_playground/base/Hello/contracts/Hello.sol",
  "compiler": {
    "name": "solc",
    "version": "0.8.6+commit.11564f7e.Emscripten.clang"
  },
  "schemaVersion": "3.4.1",
  "updatedAt": "2021-07-09T11:53:17.544Z",
  "networkType": "ethereum",
  "devdoc": {
    "kind": "dev",
    "methods": {},
    "version": 1
  },
  "userdoc": {
    "kind": "user",
    "methods": {},
    "version": 1
  }
}