{
  "contractName": "Hello",
  "abi": [
    {
      "inputs": [],
      "stateMutability": "nonpayable",
      "type": "constructor"
    },
    {
      "inputs": [],
      "name": "hello",
      "outputs": [
        {
          "internalType": "string",
          "name": "",
          "type": "string"
        }
      ],
      "stateMutability": "view",
      "type": "function",
      "constant": true
    },
    {
      "inputs": [],
      "name": "name",
      "outputs": [
        {
          "internalType": "string",
          "name": "",
          "type": "string"
        }
      ],
      "stateMutability": "view",
      "type": "function",
      "constant": true
    },
    {
      "inputs": [
        {
          "internalType": "string",
          "name": "_name",
          "type": "string"
        }
      ],
      "name": "setName",
      "outputs": [],
      "stateMutability": "nonpayable",
      "type": "function"
    },
    {
      "inputs": [],
      "name": "getName",
      "outputs": [
        {
          "internalType": "string",
          "name": "",
          "type": "string"
        }
      ],
      "stateMutability": "view",
      "type": "function",
      "constant": true
    },
    {
      "inputs": [
        {
          "internalType": "string",
          "name": "user",
          "type": "string"
        }
      ],
      "name": "sayHello",
      "outputs": [],
      "stateMutability": "nonpayable",
      "type": "function"
    }
  ],
  "bytecode": "0x608060405234801561001057600080fd5b50336000806101000a81548173ffffffffffffffffffffffffffffffffffffffff021916908373ffffffffffffffffffffffffffffffffffffffff160217905550610720806100606000396000f3fe608060405234801561001057600080fd5b50600436106100575760003560e01c806306fdde031461005c57806317d7de7c1461007a57806319ff1d2114610098578063c3a9b1c5146100b6578063c47f0027146100d2575b600080fd5b6100646100ee565b60405161007191906104fa565b60405180910390f35b61008261017c565b60405161008f91906104fa565b60405180910390f35b6100a061020e565b6040516100ad91906104fa565b60405180910390f35b6100d060048036038101906100cb9190610402565b61029c565b005b6100ec60048036038101906100e79190610402565b6102d5565b005b600280546100fb906105db565b80601f0160208091040260200160405190810160405280929190818152602001828054610127906105db565b80156101745780601f1061014957610100808354040283529160200191610174565b820191906000526020600020905b81548152906001019060200180831161015757829003601f168201915b505050505081565b60606002805461018b906105db565b80601f01602080910402602001604051908101604052809291908181526020018280546101b7906105db565b80156102045780601f106101d957610100808354040283529160200191610204565b820191906000526020600020905b8154815290600101906020018083116101e757829003601f168201915b5050505050905090565b6001805461021b906105db565b80601f0160208091040260200160405190810160405280929190818152602001828054610247906105db565b80156102945780601f1061026957610100808354040283529160200191610294565b820191906000526020600020905b81548152906001019060200180831161027757829003601f168201915b505050505081565b806040516020016102ad91906104d8565b604051602081830303815290604052600190805190602001906102d19291906102ef565b5050565b80600290805190602001906102eb9291906102ef565b5050565b8280546102fb906105db565b90600052602060002090601f01602090048101928261031d5760008555610364565b82601f1061033657805160ff1916838001178555610364565b82800160010185558215610364579182015b82811115610363578251825591602001919060010190610348565b5b5090506103719190610375565b5090565b5b8082111561038e576000816000905550600101610376565b5090565b60006103a56103a084610541565b61051c565b9050828152602081018484840111156103c1576103c06106a1565b5b6103cc848285610599565b509392505050565b600082601f8301126103e9576103e861069c565b5b81356103f9848260208601610392565b91505092915050565b600060208284031215610418576104176106ab565b5b600082013567ffffffffffffffff811115610436576104356106a6565b5b610442848285016103d4565b91505092915050565b600061045682610572565b610460818561057d565b93506104708185602086016105a8565b610479816106b0565b840191505092915050565b600061048f82610572565b610499818561058e565b93506104a98185602086016105a8565b80840191505092915050565b60006104c260068361058e565b91506104cd826106c1565b600682019050919050565b60006104e3826104b5565b91506104ef8284610484565b915081905092915050565b60006020820190508181036000830152610514818461044b565b905092915050565b6000610526610537565b9050610532828261060d565b919050565b6000604051905090565b600067ffffffffffffffff82111561055c5761055b61066d565b5b610565826106b0565b9050602081019050919050565b600081519050919050565b600082825260208201905092915050565b600081905092915050565b82818337600083830152505050565b60005b838110156105c65780820151818401526020810190506105ab565b838111156105d5576000848401525b50505050565b600060028204905060018216806105f357607f821691505b602082108114156106075761060661063e565b5b50919050565b610616826106b0565b810181811067ffffffffffffffff821117156106355761063461066d565b5b80604052505050565b7f4e487b7100000000000000000000000000000000000000000000000000000000600052602260045260246000fd5b7f4e487b7100000000000000000000000000000000000000000000000000000000600052604160045260246000fd5b600080fd5b600080fd5b600080fd5b600080fd5b6000601f19601f8301169050919050565b7f48656c6c6f20000000000000000000000000000000000000000000000000000060008201525056fea264697066735822122079cce44756db1c8426dc954eb334f915193c46cb64bb60868ce302dc4b3a27e364736f6c63430008060033",
  "immutableReferences": {},
  "source": "// SPDX-License-Identifier: MIT\npragma solidity ^0.8.6;\n\ncontract Hello {\n    address owner;\n    string public hello;\n    string public name;\n\n    constructor() { \n        owner = msg.sender;\n        // hello = \"Hello world\";\n    }\n\n    function setName(string memory _name) public {\n        name = _name;\n    }\n\n    function getName() public view returns(string memory) {\n        return name;\n    }\n\n    function sayHello(string memory user ) public {\n        hello = string(abi.encodePacked(\"Hello \", user));\n    }\n\n\n}",
  "sourcePath": "/mnt/f/Coding/github_repos/ethio_playground/base/Hello/contracts/Hello.sol",
  "compiler": {
    "name": "solc",
    "version": "0.8.6+commit.11564f7e.Emscripten.clang"
  },
  "schemaVersion": "3.4.1",
  "updatedAt": "2021-07-09T11:15:43.454Z",
  "networkType": "ethereum",
  "devdoc": {
    "kind": "dev",
    "methods": {},
    "version": 1
  },
  "userdoc": {
    "kind": "user",
    "methods": {},
    "version": 1
  }
}