{
  "_format": "hh-sol-artifact-1",
  "contractName": "Base",
  "sourceName": "contracts/BaseCaller.sol",
  "abi": [
    {
      "inputs": [],
      "stateMutability": "nonpayable",
      "type": "constructor"
    },
    {
      "inputs": [],
      "name": "getX",
      "outputs": [
        {
          "internalType": "uint256",
          "name": "",
          "type": "uint256"
        }
      ],
      "stateMutability": "view",
      "type": "function"
    },
    {
      "inputs": [
        {
          "internalType": "uint256",
          "name": "_x",
          "type": "uint256"
        }
      ],
      "name": "setX",
      "outputs": [
        {
          "internalType": "bool",
          "name": "",
          "type": "bool"
        }
      ],
      "stateMutability": "nonpayable",
      "type": "function"
    }
  ],
  "bytecode": "0x608060405234801561001057600080fd5b50600a60005560bc806100246000396000f3fe6080604052348015600f57600080fd5b506004361060325760003560e01c80634018d9aa1460375780635197c7aa14605f575b600080fd5b604a6042366004606f565b600055600190565b60405190151581526020015b60405180910390f35b6000546040519081526020016056565b600060208284031215607f578081fd5b503591905056fea2646970667358221220ac803f0716da2e35ab9655b471a07aef7a9ea16c553860e1b7962fef92b8085464736f6c63430008040033",
  "linkReferences": {},
  "deployedLinkReferences": {}
}