{
  "_format": "hh-sol-artifact-1",
  "contractName": "Caller",
  "sourceName": "contracts/BaseCaller.sol",
  "abi": [
    {
      "inputs": [
        {
          "internalType": "address",
          "name": "baseAddress",
          "type": "address"
        }
      ],
      "name": "getBaseX",
      "outputs": [
        {
          "internalType": "uint256",
          "name": "",
          "type": "uint256"
        }
      ],
      "stateMutability": "view",
      "type": "function"
    }
  ],
  "bytecode": "0x608060405234801561001057600080fd5b50610162806100206000396000f3fe608060405234801561001057600080fd5b506004361061002b5760003560e01c80633bd24dc114610030575b600080fd5b61004361003e3660046100e0565b610055565b60405190815260200160405180910390f35b6000808290508073ffffffffffffffffffffffffffffffffffffffff16635197c7aa6040518163ffffffff1660e01b815260040160206040518083038186803b1580156100a157600080fd5b505afa1580156100b5573d6000803e3d6000fd5b505050506040513d601f19601f820116820180604052508101906100d99190610114565b9392505050565b6000602082840312156100f1578081fd5b813573ffffffffffffffffffffffffffffffffffffffff811681146100d9578182fd5b600060208284031215610125578081fd5b505191905056fea2646970667358221220c4fd1ac8ccc3937923179cc9d8a70c60af21a04e6fc74e203e47140d75830da164736f6c63430008040033",
  "linkReferences": {},
  "deployedLinkReferences": {}
}