{
  "_format": "hh-sol-artifact-1",
  "contractName": "Hello",
  "sourceName": "contracts/Hello.sol",
  "abi": [
    {
      "inputs": [],
      "stateMutability": "nonpayable",
      "type": "constructor"
    },
    {
      "inputs": [],
      "name": "admin",
      "outputs": [
        {
          "internalType": "address",
          "name": "",
          "type": "address"
        }
      ],
      "stateMutability": "view",
      "type": "function"
    },
    {
      "inputs": [],
      "name": "helloToUser",
      "outputs": [
        {
          "internalType": "string",
          "name": "",
          "type": "string"
        }
      ],
      "stateMutability": "view",
      "type": "function"
    },
    {
      "inputs": [
        {
          "internalType": "string",
          "name": "user",
          "type": "string"
        }
      ],
      "name": "sayHelloTo",
      "outputs": [],
      "stateMutability": "nonpayable",
      "type": "function"
    }
  ],
  "bytecode": "0x608060405234801561001057600080fd5b50600080546001600160a01b031916331790556103f2806100326000396000f3fe608060405234801561001057600080fd5b50600436106100415760003560e01c806330a61cd8146100465780636c0ff76814610064578063f851a44014610079575b600080fd5b61004e61008e565b60405161005b91906102c8565b60405180910390f35b6100776100723660046101e8565b61011c565b005b610081610133565b60405161005b91906102a7565b6001805461009b90610339565b80601f01602080910402602001604051908101604052809291908181526020018280546100c790610339565b80156101145780601f106100e957610100808354040283529160200191610114565b820191906000526020600020905b8154815290600101906020018083116100f757829003601f168201915b505050505081565b805161012f90600190602084019061014f565b5050565b60005473ffffffffffffffffffffffffffffffffffffffff1681565b82805461015b90610339565b90600052602060002090601f01602090048101928261017d57600085556101c3565b82601f1061019657805160ff19168380011785556101c3565b828001600101855582156101c3579182015b828111156101c35782518255916020019190600101906101a8565b506101cf9291506101d3565b5090565b5b808211156101cf57600081556001016101d4565b600060208083850312156101fa578182fd5b823567ffffffffffffffff80821115610211578384fd5b818501915085601f830112610224578384fd5b8135818111156102365761023661038d565b604051847fffffffffffffffffffffffffffffffffffffffffffffffffffffffffffffffe0601f84011682010181811084821117156102775761027761038d565b604052818152838201850188101561028d578586fd5b818585018683013790810190930193909352509392505050565b73ffffffffffffffffffffffffffffffffffffffff91909116815260200190565b6000602080835283518082850152825b818110156102f4578581018301518582016040015282016102d8565b818111156103055783604083870101525b50601f017fffffffffffffffffffffffffffffffffffffffffffffffffffffffffffffffe016929092016040019392505050565b60028104600182168061034d57607f821691505b60208210811415610387577f4e487b7100000000000000000000000000000000000000000000000000000000600052602260045260246000fd5b50919050565b7f4e487b7100000000000000000000000000000000000000000000000000000000600052604160045260246000fdfea2646970667358221220d832b8bdd8b686f75259cbcea35b508eb4ed8d9f186a8583d5beabba7e9d10ed64736f6c63430008000033",
  "linkReferences": {},
  "deployedLinkReferences": {}
}