{
  "_format": "hh-sol-artifact-1",
  "contractName": "Swapper",
  "sourceName": "contracts/Swapper.sol",
  "abi": [
    {
      "inputs": [
        {
          "internalType": "address",
          "name": "_accessToken",
          "type": "address"
        },
        {
          "internalType": "uint8",
          "name": "_accessTokenId",
          "type": "uint8"
        },
        {
          "internalType": "address",
          "name": "_destNft",
          "type": "address"
        }
      ],
      "stateMutability": "nonpayable",
      "type": "constructor"
    },
    {
      "anonymous": false,
      "inputs": [
        {
          "indexed": true,
          "internalType": "address",
          "name": "previousOwner",
          "type": "address"
        },
        {
          "indexed": true,
          "internalType": "address",
          "name": "newOwner",
          "type": "address"
        }
      ],
      "name": "OwnershipTransferred",
      "type": "event"
    },
    {
      "inputs": [],
      "name": "accessToken",
      "outputs": [
        {
          "internalType": "address",
          "name": "",
          "type": "address"
        }
      ],
      "stateMutability": "view",
      "type": "function"
    },
    {
      "inputs": [],
      "name": "accessTokenId",
      "outputs": [
        {
          "internalType": "uint8",
          "name": "",
          "type": "uint8"
        }
      ],
      "stateMutability": "view",
      "type": "function"
    },
    {
      "inputs": [],
      "name": "batchClaim",
      "outputs": [],
      "stateMutability": "nonpayable",
      "type": "function"
    },
    {
      "inputs": [],
      "name": "claim",
      "outputs": [],
      "stateMutability": "nonpayable",
      "type": "function"
    },
    {
      "inputs": [],
      "name": "destNft",
      "outputs": [
        {
          "internalType": "address",
          "name": "",
          "type": "address"
        }
      ],
      "stateMutability": "view",
      "type": "function"
    },
    {
      "inputs": [
        {
          "internalType": "address",
          "name": "account",
          "type": "address"
        }
      ],
      "name": "forceMintTo",
      "outputs": [],
      "stateMutability": "nonpayable",
      "type": "function"
    },
    {
      "inputs": [],
      "name": "owner",
      "outputs": [
        {
          "internalType": "address",
          "name": "",
          "type": "address"
        }
      ],
      "stateMutability": "view",
      "type": "function"
    },
    {
      "inputs": [],
      "name": "pause",
      "outputs": [],
      "stateMutability": "nonpayable",
      "type": "function"
    },
    {
      "inputs": [
        {
          "internalType": "address",
          "name": "holderAddress",
          "type": "address"
        }
      ],
      "name": "redeemer",
      "outputs": [
        {
          "internalType": "uint256",
          "name": "",
          "type": "uint256"
        }
      ],
      "stateMutability": "view",
      "type": "function"
    },
    {
      "inputs": [],
      "name": "renounceOwnership",
      "outputs": [],
      "stateMutability": "nonpayable",
      "type": "function"
    },
    {
      "inputs": [],
      "name": "snapshot",
      "outputs": [
        {
          "internalType": "uint256",
          "name": "",
          "type": "uint256"
        }
      ],
      "stateMutability": "nonpayable",
      "type": "function"
    },
    {
      "inputs": [],
      "name": "snapshotId",
      "outputs": [
        {
          "internalType": "uint256",
          "name": "",
          "type": "uint256"
        }
      ],
      "stateMutability": "view",
      "type": "function"
    },
    {
      "inputs": [
        {
          "internalType": "address",
          "name": "newOwner",
          "type": "address"
        }
      ],
      "name": "transferOwnership",
      "outputs": [],
      "stateMutability": "nonpayable",
      "type": "function"
    },
    {
      "inputs": [],
      "name": "unpause",
      "outputs": [],
      "stateMutability": "nonpayable",
      "type": "function"
    }
  ],
  "bytecode": "0x60e060405234801561001057600080fd5b5060405161109838038061109883398101604081905261002f916100ef565b61003833610083565b606092831b6001600160601b031990811660805260f89290921b7fff000000000000000000000000000000000000000000000000000000000000001660c05290911b1660a052610138565b600080546001600160a01b038381166001600160a01b0319831681178455604051919092169283917f8be0079c531659141344cd1fd0a4f28419497f9722a3daafe3b4186f6b6457e09190a35050565b80516001600160a01b03811681146100ea57600080fd5b919050565b600080600060608486031215610103578283fd5b61010c846100d3565b9250602084015160ff81168114610121578283fd5b915061012f604085016100d3565b90509250925092565b60805160601c60a05160601c60c05160f81c610eab6101ed6000396000818160f40152818161035b0152818161049b015281816107bd015281816109030152610c020152600081816102150152818161026c01528181610514015281816105a301528181610663015281816106d80152818161097201528181610a5e0152610ae40152600081816101d30152818161038501528181610469015281816107e7015281816108d10152610c2c0152610eab6000f3fe608060405234801561001057600080fd5b50600436106100ea5760003560e01c80638da5cb5b1161008c578063e243c5fb11610066578063e243c5fb146101ce578063f2fde38b146101f5578063f4af0bd014610208578063fa98a8631461021057600080fd5b80638da5cb5b146101785780639005335b1461019d5780639711715a146101c657600080fd5b80633f4ba83a116100c85780633f4ba83a146101585780634e71d92d14610160578063715018a6146101685780638456cb591461017057600080fd5b806317376563146100ef578063237be41f1461012d5780632ddc79b714610142575b600080fd5b6101167f000000000000000000000000000000000000000000000000000000000000000081565b60405160ff90911681526020015b60405180910390f35b61014061013b366004610d78565b610237565b005b61014a61059f565b604051908152602001610124565b610140610637565b6101406106d6565b6101406109fc565b610140610a32565b6000546001600160a01b03165b6040516001600160a01b039091168152602001610124565b61014a6101ab366004610d78565b6001600160a01b031660009081526001602052604090205490565b61014a610ab7565b6101857f000000000000000000000000000000000000000000000000000000000000000081565b610140610203366004610d78565b610b51565b610140610bec565b6101857f000000000000000000000000000000000000000000000000000000000000000081565b6000546001600160a01b0316331461026a5760405162461bcd60e51b815260040161026190610e19565b60405180910390fd5b7f00000000000000000000000000000000000000000000000000000000000000006001600160a01b0316635c975abb6040518163ffffffff1660e01b815260040160206040518083038186803b1580156102c357600080fd5b505afa1580156102d7573d6000803e3d6000fd5b505050506040513d601f19601f820116820180604052508101906102fb9190610da6565b1561033b5760405162461bcd60e51b815260206004820152601060248201526f14185d5cd8589b194e881c185d5cd95960821b6044820152606401610261565b604051627eeac760e11b81526001600160a01b03828116600483015260ff7f00000000000000000000000000000000000000000000000000000000000000001660248301526000917f00000000000000000000000000000000000000000000000000000000000000009091169062fdd58e9060440160206040518083038186803b1580156103c857600080fd5b505afa1580156103dc573d6000803e3d6000fd5b505050506040513d601f19601f820116820180604052508101906104009190610dc6565b9050600081116104525760405162461bcd60e51b815260206004820152601f60248201527f496e636f72726563742061636365737320746f6b656e206964206f776e6572006044820152606401610261565b604051637921219560e11b81526001600160a01b037f0000000000000000000000000000000000000000000000000000000000000000169063f242432a906104c59085906001907f0000000000000000000000000000000000000000000000000000000000000000908290600401610dde565b600060405180830381600087803b1580156104df57600080fd5b505af11580156104f3573d6000803e3d6000fd5b5050604051634bf4b74360e11b81526001600160a01b0385811660048301527f00000000000000000000000000000000000000000000000000000000000000001692506397e96e869150602401600060405180830381600087803b15801561055a57600080fd5b505af115801561056e573d6000803e3d6000fd5b505050506001600160a01b038216600090815260016020526040812080549161059683610e4e565b91905055505050565b60007f00000000000000000000000000000000000000000000000000000000000000006001600160a01b0316632ddc79b76040518163ffffffff1660e01b815260040160206040518083038186803b1580156105fa57600080fd5b505afa15801561060e573d6000803e3d6000fd5b505050506040513d601f19601f820116820180604052508101906106329190610dc6565b905090565b6000546001600160a01b031633146106615760405162461bcd60e51b815260040161026190610e19565b7f00000000000000000000000000000000000000000000000000000000000000006001600160a01b0316633f4ba83a6040518163ffffffff1660e01b8152600401600060405180830381600087803b1580156106bc57600080fd5b505af11580156106d0573d6000803e3d6000fd5b50505050565b7f00000000000000000000000000000000000000000000000000000000000000006001600160a01b0316635c975abb6040518163ffffffff1660e01b815260040160206040518083038186803b15801561072f57600080fd5b505afa158015610743573d6000803e3d6000fd5b505050506040513d601f19601f820116820180604052508101906107679190610da6565b156107a75760405162461bcd60e51b815260206004820152601060248201526f14185d5cd8589b194e881c185d5cd95960821b6044820152606401610261565b604051627eeac760e11b815233600482015260ff7f00000000000000000000000000000000000000000000000000000000000000001660248201526000907f00000000000000000000000000000000000000000000000000000000000000006001600160a01b03169062fdd58e9060440160206040518083038186803b15801561083057600080fd5b505afa158015610844573d6000803e3d6000fd5b505050506040513d601f19601f820116820180604052508101906108689190610dc6565b9050600081116108ba5760405162461bcd60e51b815260206004820152601f60248201527f496e636f72726563742061636365737320746f6b656e206964206f776e6572006044820152606401610261565b604051637921219560e11b81526001600160a01b037f0000000000000000000000000000000000000000000000000000000000000000169063f242432a9061092d9033906001907f0000000000000000000000000000000000000000000000000000000000000000908290600401610dde565b600060405180830381600087803b15801561094757600080fd5b505af115801561095b573d6000803e3d6000fd5b5050604051634bf4b74360e11b81523360048201527f00000000000000000000000000000000000000000000000000000000000000006001600160a01b031692506397e96e869150602401600060405180830381600087803b1580156109c057600080fd5b505af11580156109d4573d6000803e3d6000fd5b50503360009081526001602052604081208054935091506109f483610e4e565b919050555050565b6000546001600160a01b03163314610a265760405162461bcd60e51b815260040161026190610e19565b610a306000610d28565b565b6000546001600160a01b03163314610a5c5760405162461bcd60e51b815260040161026190610e19565b7f00000000000000000000000000000000000000000000000000000000000000006001600160a01b0316638456cb596040518163ffffffff1660e01b8152600401600060405180830381600087803b1580156106bc57600080fd5b600080546001600160a01b03163314610ae25760405162461bcd60e51b815260040161026190610e19565b7f00000000000000000000000000000000000000000000000000000000000000006001600160a01b0316639711715a6040518163ffffffff1660e01b8152600401602060405180830381600087803b158015610b3d57600080fd5b505af115801561060e573d6000803e3d6000fd5b6000546001600160a01b03163314610b7b5760405162461bcd60e51b815260040161026190610e19565b6001600160a01b038116610be05760405162461bcd60e51b815260206004820152602660248201527f4f776e61626c653a206e6577206f776e657220697320746865207a65726f206160448201526564647265737360d01b6064820152608401610261565b610be981610d28565b50565b604051627eeac760e11b815233600482015260ff7f00000000000000000000000000000000000000000000000000000000000000001660248201526000907f00000000000000000000000000000000000000000000000000000000000000006001600160a01b03169062fdd58e9060440160206040518083038186803b158015610c7557600080fd5b505afa158015610c89573d6000803e3d6000fd5b505050506040513d601f19601f82011682018060405250810190610cad9190610dc6565b905060008111610cff5760405162461bcd60e51b815260206004820152601c60248201527f416c6c20746f6b656e732068617665206265656e20636c61696d6564000000006044820152606401610261565b60005b81811015610d2457610d126106d6565b80610d1c81610e4e565b915050610d02565b5050565b600080546001600160a01b038381166001600160a01b0319831681178455604051919092169283917f8be0079c531659141344cd1fd0a4f28419497f9722a3daafe3b4186f6b6457e09190a35050565b600060208284031215610d89578081fd5b81356001600160a01b0381168114610d9f578182fd5b9392505050565b600060208284031215610db7578081fd5b81518015158114610d9f578182fd5b600060208284031215610dd7578081fd5b5051919050565b6001600160a01b03948516815292909316602083015260ff166040820152606081019190915260a06080820181905260009082015260c00190565b6020808252818101527f4f776e61626c653a2063616c6c6572206973206e6f7420746865206f776e6572604082015260600190565b6000600019821415610e6e57634e487b7160e01b81526011600452602481fd5b506001019056fea264697066735822122080d55c605f68a5c6ca540875e2565540a64467093c8729d0e758348105b7536b64736f6c63430008040033",
  "linkReferences": {},
  "deployedLinkReferences": {}
}