{
  "_format": "hh-sol-artifact-1",
  "contractName": "MyToken",
  "sourceName": "contracts/MyToken.sol",
  "abi": [
    {
      "inputs": [
        {
          "internalType": "bytes32",
          "name": "_name",
          "type": "bytes32"
        },
        {
          "internalType": "bytes32",
          "name": "_symbol",
          "type": "bytes32"
        },
        {
          "internalType": "uint256",
          "name": "_totalSupply",
          "type": "uint256"
        }
      ],
      "stateMutability": "nonpayable",
      "type": "constructor"
    },
    {
      "inputs": [
        {
          "internalType": "address",
          "name": "_addr",
          "type": "address"
        },
        {
          "internalType": "uint256",
          "name": "_amount",
          "type": "uint256"
        }
      ],
      "name": "Transfer",
      "outputs": [],
      "stateMutability": "nonpayable",
      "type": "function"
    },
    {
      "inputs": [
        {
          "internalType": "address",
          "name": "_addr",
          "type": "address"
        }
      ],
      "name": "balanceOf",
      "outputs": [
        {
          "internalType": "uint256",
          "name": "",
          "type": "uint256"
        }
      ],
      "stateMutability": "view",
      "type": "function"
    },
    {
      "inputs": [],
      "name": "name",
      "outputs": [
        {
          "internalType": "bytes32",
          "name": "",
          "type": "bytes32"
        }
      ],
      "stateMutability": "view",
      "type": "function"
    },
    {
      "inputs": [],
      "name": "owner",
      "outputs": [
        {
          "internalType": "address",
          "name": "",
          "type": "address"
        }
      ],
      "stateMutability": "view",
      "type": "function"
    },
    {
      "inputs": [],
      "name": "symbol",
      "outputs": [
        {
          "internalType": "bytes32",
          "name": "",
          "type": "bytes32"
        }
      ],
      "stateMutability": "view",
      "type": "function"
    },
    {
      "inputs": [],
      "name": "totalSupply",
      "outputs": [
        {
          "internalType": "uint256",
          "name": "",
          "type": "uint256"
        }
      ],
      "stateMutability": "view",
      "type": "function"
    }
  ],
  "bytecode": "0x608060405234801561001057600080fd5b5060405161075b38038061075b83398101604081905261002f91610152565b6100a76040518060600160405280603c815260200161071f603c913960408051602081018790520160408051601f1981840301815282825260208301879052910160408051601f198184030181528282526020830187905291016040516020818303038152906040526100de60201b61028b1760201c565b600080546001600160a01b031916339081178255600194909455600292909255600381905591815260046020526040902055610222565b61012b848484846040516024016100f894939291906101ca565b60408051601f198184030181529190526020810180516001600160e01b03908116636f34790560e11b1790915261013116565b50505050565b80516a636f6e736f6c652e6c6f67602083016000808483855afa5050505050565b600080600060608486031215610166578283fd5b8351925060208401519150604084015190509250925092565b60008151808452815b818110156101a457602081850181015186830182015201610188565b818111156101b55782602083870101525b50601f01601f19169290920160200192915050565b6080815260006101dd608083018761017f565b82810360208401526101ef818761017f565b90508281036040840152610203818661017f565b90508281036060840152610217818561017f565b979650505050505050565b6104ee806102316000396000f3fe608060405234801561001057600080fd5b50600436106100725760003560e01c806370a082311161005057806370a08231146100b15780638da5cb5b146100da57806395d89b411461010557600080fd5b806306fdde031461007757806318160ddd1461009357806369ca02dd1461009c575b600080fd5b61008060015481565b6040519081526020015b60405180910390f35b61008060035481565b6100af6100aa366004610366565b61010e565b005b6100806100bf366004610345565b6001600160a01b031660009081526004602052604090205490565b6000546100ed906001600160a01b031681565b6040516001600160a01b03909116815260200161008a565b61008060025481565b600080546001600160a01b0316815260046020526040902054811115610194576040517f08c379a000000000000000000000000000000000000000000000000000000000815260206004820152601160248201527f4e6f7420656e6f75676820746f6b656e73000000000000000000000000000000604482015260640160405180910390fd5b61022d6040518060600160405280602881526020016104916028913960408051602081018590520160408051601f198184030181529082905260005460601b6bffffffffffffffffffffffff191660208301529060340160408051601f19818403018152908290526bffffffffffffffffffffffff19606088901b1660208301529060340160405160208183030381529060405261028b565b600080546001600160a01b03168152600460205260408120805483929061025590849061044a565b90915550506001600160a01b03821660009081526004602052604081208054839290610282908490610432565b90915550505050565b610302848484846040516024016102a594939291906103da565b60408051601f198184030181529190526020810180517bffffffffffffffffffffffffffffffffffffffffffffffffffffffff167fde68f20a00000000000000000000000000000000000000000000000000000000179052610308565b50505050565b80516a636f6e736f6c652e6c6f67602083016000808483855afa5050505050565b80356001600160a01b038116811461034057600080fd5b919050565b600060208284031215610356578081fd5b61035f82610329565b9392505050565b60008060408385031215610378578081fd5b61038183610329565b946020939093013593505050565b60008151808452815b818110156103b457602081850181015186830182015201610398565b818111156103c55782602083870101525b50601f01601f19169290920160200192915050565b6080815260006103ed608083018761038f565b82810360208401526103ff818761038f565b90508281036040840152610413818661038f565b90508281036060840152610427818561038f565b979650505050505050565b6000821982111561044557610445610461565b500190565b60008282101561045c5761045c610461565b500390565b7f4e487b7100000000000000000000000000000000000000000000000000000000600052601160045260246000fdfe5472616e7366657272696e6720257320746f6b656e732066726f6d202725732720746f2027257327a26469706673582212208e2fbb3a696f1a5ea44eb3023d674961694012d8d9f43be8cd0d56342617f78664736f6c634300080400334465706c6f79696e67206120546f6b656e2077697468206e616d653a2025732c2073796d626f6c3a2025732c20746f74616c537570706c793a202573",
  "linkReferences": {},
  "deployedLinkReferences": {}
}