{
  "_format": "hh-sol-artifact-1",
  "contractName": "MyToken",
  "sourceName": "contracts/MyToken.sol",
  "abi": [
    {
      "inputs": [
        {
          "internalType": "bytes32",
          "name": "_name",
          "type": "bytes32"
        },
        {
          "internalType": "bytes32",
          "name": "_symbol",
          "type": "bytes32"
        },
        {
          "internalType": "uint256",
          "name": "_totalSupply",
          "type": "uint256"
        }
      ],
      "stateMutability": "nonpayable",
      "type": "constructor"
    },
    {
      "inputs": [
        {
          "internalType": "address",
          "name": "_addr",
          "type": "address"
        },
        {
          "internalType": "uint256",
          "name": "_amount",
          "type": "uint256"
        }
      ],
      "name": "Transfer",
      "outputs": [],
      "stateMutability": "nonpayable",
      "type": "function"
    },
    {
      "inputs": [
        {
          "internalType": "address",
          "name": "_addr",
          "type": "address"
        }
      ],
      "name": "balanceOf",
      "outputs": [
        {
          "internalType": "uint256",
          "name": "",
          "type": "uint256"
        }
      ],
      "stateMutability": "view",
      "type": "function"
    },
    {
      "inputs": [],
      "name": "name",
      "outputs": [
        {
          "internalType": "bytes32",
          "name": "",
          "type": "bytes32"
        }
      ],
      "stateMutability": "view",
      "type": "function"
    },
    {
      "inputs": [],
      "name": "owner",
      "outputs": [
        {
          "internalType": "address",
          "name": "",
          "type": "address"
        }
      ],
      "stateMutability": "view",
      "type": "function"
    },
    {
      "inputs": [],
      "name": "symbol",
      "outputs": [
        {
          "internalType": "bytes32",
          "name": "",
          "type": "bytes32"
        }
      ],
      "stateMutability": "view",
      "type": "function"
    },
    {
      "inputs": [],
      "name": "totalSupply",
      "outputs": [
        {
          "internalType": "uint256",
          "name": "",
          "type": "uint256"
        }
      ],
      "stateMutability": "view",
      "type": "function"
    }
  ],
  "bytecode": "0x608060405234801561001057600080fd5b5060405161076238038061076283398101604081905261002f91610152565b6100a76040518060600160405280603c8152602001610726603c913960408051602081018790520160408051601f1981840301815282825260208301879052910160408051601f198184030181528282526020830187905291016040516020818303038152906040526100de60201b61028b1760201c565b600080546001600160a01b031916339081178255600194909455600292909255600381905591815260046020526040902055610225565b61012b848484846040516024016100f894939291906101cd565b60408051601f198184030181529190526020810180516001600160e01b03908116636f34790560e11b1790915261013116565b50505050565b80516a636f6e736f6c652e6c6f67602083016000808483855afa5050505050565b60008060006060848603121561016757600080fd5b8351925060208401519150604084015190509250925092565b6000815180845260005b818110156101a65760208185018101518683018201520161018a565b818111156101b8576000602083870101525b50601f01601f19169290920160200192915050565b6080815260006101e06080830187610180565b82810360208401526101f28187610180565b905082810360408401526102068186610180565b9050828103606084015261021a8185610180565b979650505050505050565b6104f2806102346000396000f3fe608060405234801561001057600080fd5b50600436106100725760003560e01c806370a082311161005057806370a08231146100b15780638da5cb5b146100da57806395d89b411461010557600080fd5b806306fdde031461007757806318160ddd1461009357806369ca02dd1461009c575b600080fd5b61008060015481565b6040519081526020015b60405180910390f35b61008060035481565b6100af6100aa366004610367565b61010e565b005b6100806100bf366004610345565b6001600160a01b031660009081526004602052604090205490565b6000546100ed906001600160a01b031681565b6040516001600160a01b03909116815260200161008a565b61008060025481565b600080546001600160a01b0316815260046020526040902054811115610194576040517f08c379a000000000000000000000000000000000000000000000000000000000815260206004820152601160248201527f4e6f7420656e6f75676820746f6b656e73000000000000000000000000000000604482015260640160405180910390fd5b61022d6040518060600160405280602881526020016104956028913960408051602081018590520160408051601f198184030181529082905260005460601b6bffffffffffffffffffffffff191660208301529060340160408051601f19818403018152908290526bffffffffffffffffffffffff19606088901b1660208301529060340160405160208183030381529060405261028b565b600080546001600160a01b03168152600460205260408120805483929061025590849061044e565b90915550506001600160a01b03821660009081526004602052604081208054839290610282908490610436565b90915550505050565b610302848484846040516024016102a594939291906103de565b60408051601f198184030181529190526020810180517bffffffffffffffffffffffffffffffffffffffffffffffffffffffff167fde68f20a00000000000000000000000000000000000000000000000000000000179052610308565b50505050565b80516a636f6e736f6c652e6c6f67602083016000808483855afa5050505050565b80356001600160a01b038116811461034057600080fd5b919050565b60006020828403121561035757600080fd5b61036082610329565b9392505050565b6000806040838503121561037a57600080fd5b61038383610329565b946020939093013593505050565b6000815180845260005b818110156103b75760208185018101518683018201520161039b565b818111156103c9576000602083870101525b50601f01601f19169290920160200192915050565b6080815260006103f16080830187610391565b82810360208401526104038187610391565b905082810360408401526104178186610391565b9050828103606084015261042b8185610391565b979650505050505050565b6000821982111561044957610449610465565b500190565b60008282101561046057610460610465565b500390565b7f4e487b7100000000000000000000000000000000000000000000000000000000600052601160045260246000fdfe5472616e7366657272696e6720257320746f6b656e732066726f6d202725732720746f2027257327a264697066735822122016206f9b6091e950066bb866268c6f9d3b9dd4e3e89690d1045a4a8e92d2234864736f6c634300080600334465706c6f79696e67206120546f6b656e2077697468206e616d653a2025732c2073796d626f6c3a2025732c20746f74616c537570706c793a202573",
  "linkReferences": {},
  "deployedLinkReferences": {}
}