{
  "_format": "hh-sol-artifact-1",
  "contractName": "CrowdFunding",
  "sourceName": "contracts/CrowdFunding.sol",
  "abi": [
    {
      "inputs": [
        {
          "internalType": "uint256",
          "name": "",
          "type": "uint256"
        }
      ],
      "name": "campaigns",
      "outputs": [
        {
          "internalType": "address payable",
          "name": "beneficiary",
          "type": "address"
        },
        {
          "internalType": "uint256",
          "name": "fundingGoal",
          "type": "uint256"
        },
        {
          "internalType": "uint256",
          "name": "numFunders",
          "type": "uint256"
        },
        {
          "internalType": "uint256",
          "name": "amount",
          "type": "uint256"
        }
      ],
      "stateMutability": "view",
      "type": "function"
    },
    {
      "inputs": [
        {
          "internalType": "uint256",
          "name": "campaignID",
          "type": "uint256"
        }
      ],
      "name": "checkGoalReached",
      "outputs": [
        {
          "internalType": "bool",
          "name": "reached",
          "type": "bool"
        }
      ],
      "stateMutability": "nonpayable",
      "type": "function"
    },
    {
      "inputs": [
        {
          "internalType": "uint256",
          "name": "campaignID",
          "type": "uint256"
        }
      ],
      "name": "contribute",
      "outputs": [],
      "stateMutability": "payable",
      "type": "function"
    },
    {
      "inputs": [
        {
          "internalType": "address payable",
          "name": "_beneficiary",
          "type": "address"
        },
        {
          "internalType": "uint256",
          "name": "_goal",
          "type": "uint256"
        }
      ],
      "name": "newCampaign",
      "outputs": [
        {
          "internalType": "uint256",
          "name": "",
          "type": "uint256"
        }
      ],
      "stateMutability": "nonpayable",
      "type": "function"
    },
    {
      "inputs": [],
      "name": "numCampaigns",
      "outputs": [
        {
          "internalType": "uint256",
          "name": "",
          "type": "uint256"
        }
      ],
      "stateMutability": "view",
      "type": "function"
    }
  ],
  "bytecode": "0x608060405234801561001057600080fd5b506103d9806100206000396000f3fe60806040526004361061005a5760003560e01c80635b2329d4116100435780635b2329d414610101578063c1cbbca714610131578063f7572cf31461014657600080fd5b8063141961bc1461005f5780632c0f7b6f146100dd575b600080fd5b34801561006b57600080fd5b506100ae61007a366004610328565b600160208190526000918252604090912080549181015460028201546003909201546001600160a01b039093169290919084565b604080516001600160a01b03909516855260208501939093529183015260608201526080015b60405180910390f35b3480156100e957600080fd5b506100f360005481565b6040519081526020016100d4565b34801561010d57600080fd5b5061012161011c366004610328565b610166565b60405190151581526020016100d4565b61014461013f366004610328565b6101df565b005b34801561015257600080fd5b506100f36101613660046102f0565b610288565b60008181526001602081905260408220908101546003820154101561018e5750600092915050565b600381018054600091829055825460405191926001600160a01b039091169183156108fc0291849190818181858888f193505050501580156101d4573d6000803e3d6000fd5b506001949350505050565b600081815260016020908152604080832081518083019092523382523492820192909252600282018054929391926004850192918261021d83610359565b90915550815260208082019290925260400160009081208351815473ffffffffffffffffffffffffffffffffffffffff19166001600160a01b03909116178155929091015160019092019190915560038201805434929061027f908490610341565b90915550505050565b600080600080815461029990610359565b91829055506000818152600160208190526040822080546001600160a01b03891673ffffffffffffffffffffffffffffffffffffffff19909116178155908101869055600281018290556003015591505092915050565b6000806040838503121561030357600080fd5b82356001600160a01b038116811461031a57600080fd5b946020939093013593505050565b60006020828403121561033a57600080fd5b5035919050565b6000821982111561035457610354610374565b500190565b600060001982141561036d5761036d610374565b5060010190565b7f4e487b7100000000000000000000000000000000000000000000000000000000600052601160045260246000fdfea2646970667358221220487594f0c625fbe9a0a59289dbe736047dd18992a1da4a77a562e2cd21e051d364736f6c63430008060033",
  "linkReferences": {},
  "deployedLinkReferences": {}
}