{
  "_format": "hh-sol-artifact-1",
  "contractName": "SimpleDAO",
  "sourceName": "contracts/SimpleDAO.sol",
  "abi": [
    {
      "inputs": [],
      "stateMutability": "nonpayable",
      "type": "constructor"
    },
    {
      "inputs": [],
      "name": "admin",
      "outputs": [
        {
          "internalType": "address",
          "name": "",
          "type": "address"
        }
      ],
      "stateMutability": "view",
      "type": "function"
    },
    {
      "inputs": [
        {
          "internalType": "address",
          "name": "_addr",
          "type": "address"
        }
      ],
      "name": "balanceOf",
      "outputs": [
        {
          "internalType": "uint256",
          "name": "",
          "type": "uint256"
        }
      ],
      "stateMutability": "view",
      "type": "function"
    },
    {
      "inputs": [],
      "name": "donate",
      "outputs": [],
      "stateMutability": "payable",
      "type": "function"
    },
    {
      "inputs": [
        {
          "internalType": "uint256",
          "name": "_amount",
          "type": "uint256"
        }
      ],
      "name": "withdraw",
      "outputs": [],
      "stateMutability": "nonpayable",
      "type": "function"
    }
  ],
  "bytecode": "0x608060405234801561001057600080fd5b506001600055600280546001600160a01b031916331790556103fb806100376000396000f3fe60806040526004361061003f5760003560e01c80632e1a7d4d1461004457806370a0823114610066578063ed88c68e146100bc578063f851a440146100c4575b600080fd5b34801561005057600080fd5b5061006461005f366004610316565b610116565b005b34801561007257600080fd5b506100a96100813660046102db565b73ffffffffffffffffffffffffffffffffffffffff1660009081526001602052604090205490565b6040519081526020015b60405180910390f35b6100646102b5565b3480156100d057600080fd5b506002546100f19073ffffffffffffffffffffffffffffffffffffffff1681565b60405173ffffffffffffffffffffffffffffffffffffffff90911681526020016100b3565b6002600054141561016e5760405162461bcd60e51b815260206004820152601f60248201527f5265656e7472616e637947756172643a207265656e7472616e742063616c6c0060448201526064015b60405180910390fd5b60026000908155338152600160205260409020548111156101d15760405162461bcd60e51b815260206004820152601460248201527f496e73756666696369656e742062616c616e63650000000000000000000000006044820152606401610165565b33600090815260016020526040812080548392906101f090849061037f565b909155505060408051600080825260208201928390529133916127109185916102189161032e565b600060405180830381858888f193505050503d8060008114610256576040519150601f19603f3d011682016040523d82523d6000602084013e61025b565b606091505b50509050806102ac5760405162461bcd60e51b815260206004820152601060248201527f5472616e73666572206661696c65642e000000000000000000000000000000006044820152606401610165565b50506001600055565b33600090815260016020526040812080543492906102d4908490610367565b9091555050565b6000602082840312156102ec578081fd5b813573ffffffffffffffffffffffffffffffffffffffff8116811461030f578182fd5b9392505050565b600060208284031215610327578081fd5b5035919050565b60008251815b8181101561034e5760208186018101518583015201610334565b8181111561035c5782828501525b509190910192915050565b6000821982111561037a5761037a610396565b500190565b60008282101561039157610391610396565b500390565b7f4e487b7100000000000000000000000000000000000000000000000000000000600052601160045260246000fdfea2646970667358221220615c9b4f677b044aa862c67b4281ed2f34f4c7bc2c7c437019056ec913d9172a64736f6c63430008040033",
  "linkReferences": {},
  "deployedLinkReferences": {}
}