{
  "_format": "hh-sol-artifact-1",
  "contractName": "ERC20Token",
  "sourceName": "contracts/ERC20Token.sol",
  "abi": [
    {
      "inputs": [],
      "stateMutability": "nonpayable",
      "type": "constructor"
    },
    {
      "anonymous": false,
      "inputs": [
        {
          "indexed": true,
          "internalType": "address",
          "name": "owner",
          "type": "address"
        },
        {
          "indexed": true,
          "internalType": "address",
          "name": "spender",
          "type": "address"
        },
        {
          "indexed": false,
          "internalType": "uint256",
          "name": "value",
          "type": "uint256"
        }
      ],
      "name": "Approval",
      "type": "event"
    },
    {
      "anonymous": false,
      "inputs": [
        {
          "indexed": true,
          "internalType": "address",
          "name": "from",
          "type": "address"
        },
        {
          "indexed": true,
          "internalType": "address",
          "name": "to",
          "type": "address"
        },
        {
          "indexed": false,
          "internalType": "uint256",
          "name": "value",
          "type": "uint256"
        }
      ],
      "name": "Transfer",
      "type": "event"
    },
    {
      "inputs": [],
      "name": "admin",
      "outputs": [
        {
          "internalType": "address",
          "name": "",
          "type": "address"
        }
      ],
      "stateMutability": "view",
      "type": "function"
    },
    {
      "inputs": [
        {
          "internalType": "address",
          "name": "owner",
          "type": "address"
        },
        {
          "internalType": "address",
          "name": "spender",
          "type": "address"
        }
      ],
      "name": "allowance",
      "outputs": [
        {
          "internalType": "uint256",
          "name": "",
          "type": "uint256"
        }
      ],
      "stateMutability": "view",
      "type": "function"
    },
    {
      "inputs": [
        {
          "internalType": "address",
          "name": "spender",
          "type": "address"
        },
        {
          "internalType": "uint256",
          "name": "amount",
          "type": "uint256"
        }
      ],
      "name": "approve",
      "outputs": [
        {
          "internalType": "bool",
          "name": "",
          "type": "bool"
        }
      ],
      "stateMutability": "nonpayable",
      "type": "function"
    },
    {
      "inputs": [
        {
          "internalType": "address",
          "name": "account",
          "type": "address"
        }
      ],
      "name": "balanceOf",
      "outputs": [
        {
          "internalType": "uint256",
          "name": "",
          "type": "uint256"
        }
      ],
      "stateMutability": "view",
      "type": "function"
    },
    {
      "inputs": [
        {
          "internalType": "uint256",
          "name": "amount",
          "type": "uint256"
        }
      ],
      "name": "burn",
      "outputs": [],
      "stateMutability": "nonpayable",
      "type": "function"
    },
    {
      "inputs": [],
      "name": "decimals",
      "outputs": [
        {
          "internalType": "uint8",
          "name": "",
          "type": "uint8"
        }
      ],
      "stateMutability": "view",
      "type": "function"
    },
    {
      "inputs": [
        {
          "internalType": "address",
          "name": "spender",
          "type": "address"
        },
        {
          "internalType": "uint256",
          "name": "subtractedValue",
          "type": "uint256"
        }
      ],
      "name": "decreaseAllowance",
      "outputs": [
        {
          "internalType": "bool",
          "name": "",
          "type": "bool"
        }
      ],
      "stateMutability": "nonpayable",
      "type": "function"
    },
    {
      "inputs": [
        {
          "internalType": "address",
          "name": "spender",
          "type": "address"
        },
        {
          "internalType": "uint256",
          "name": "addedValue",
          "type": "uint256"
        }
      ],
      "name": "increaseAllowance",
      "outputs": [
        {
          "internalType": "bool",
          "name": "",
          "type": "bool"
        }
      ],
      "stateMutability": "nonpayable",
      "type": "function"
    },
    {
      "inputs": [
        {
          "internalType": "address",
          "name": "to",
          "type": "address"
        },
        {
          "internalType": "uint256",
          "name": "amount",
          "type": "uint256"
        }
      ],
      "name": "mint",
      "outputs": [],
      "stateMutability": "nonpayable",
      "type": "function"
    },
    {
      "inputs": [],
      "name": "name",
      "outputs": [
        {
          "internalType": "string",
          "name": "",
          "type": "string"
        }
      ],
      "stateMutability": "view",
      "type": "function"
    },
    {
      "inputs": [],
      "name": "symbol",
      "outputs": [
        {
          "internalType": "string",
          "name": "",
          "type": "string"
        }
      ],
      "stateMutability": "view",
      "type": "function"
    },
    {
      "inputs": [],
      "name": "totalSupply",
      "outputs": [
        {
          "internalType": "uint256",
          "name": "",
          "type": "uint256"
        }
      ],
      "stateMutability": "view",
      "type": "function"
    },
    {
      "inputs": [
        {
          "internalType": "address",
          "name": "recipient",
          "type": "address"
        },
        {
          "internalType": "uint256",
          "name": "amount",
          "type": "uint256"
        }
      ],
      "name": "transfer",
      "outputs": [
        {
          "internalType": "bool",
          "name": "",
          "type": "bool"
        }
      ],
      "stateMutability": "nonpayable",
      "type": "function"
    },
    {
      "inputs": [
        {
          "internalType": "address",
          "name": "sender",
          "type": "address"
        },
        {
          "internalType": "address",
          "name": "recipient",
          "type": "address"
        },
        {
          "internalType": "uint256",
          "name": "amount",
          "type": "uint256"
        }
      ],
      "name": "transferFrom",
      "outputs": [
        {
          "internalType": "bool",
          "name": "",
          "type": "bool"
        }
      ],
      "stateMutability": "nonpayable",
      "type": "function"
    }
  ],
  "bytecode": "0x60806040523480156200001157600080fd5b506040518060400160405280600881526020016726bc902a37b5b2b760c11b8152506040518060400160405280600381526020016226aa2760e91b815250816003908051906020019062000067929190620001c1565b5080516200007d906004906020840190620001c1565b505050620000bc3362000095620000d460201b60201c565b620000a59060ff16600a620002cb565b620000b6906402540be40062000396565b620000d9565b600580546001600160a01b031916331790556200040b565b601290565b6001600160a01b038216620001345760405162461bcd60e51b815260206004820152601f60248201527f45524332303a206d696e7420746f20746865207a65726f206164647265737300604482015260640160405180910390fd5b806002600082825462000148919062000267565b90915550506001600160a01b038216600090815260208190526040812080548392906200017790849062000267565b90915550506040518181526001600160a01b038316906000907fddf252ad1be2c89b69c2b068fc378daa952ba7f163c4a11628f55a4df523b3ef9060200160405180910390a35050565b828054620001cf90620003b8565b90600052602060002090601f016020900481019282620001f357600085556200023e565b82601f106200020e57805160ff19168380011785556200023e565b828001600101855582156200023e579182015b828111156200023e57825182559160200191906001019062000221565b506200024c92915062000250565b5090565b5b808211156200024c576000815560010162000251565b600082198211156200027d576200027d620003f5565b500190565b600181815b80851115620002c3578160001904821115620002a757620002a7620003f5565b80851615620002b557918102915b93841c939080029062000287565b509250929050565b6000620002d98383620002e0565b9392505050565b600082620002f15750600162000390565b81620003005750600062000390565b8160018114620003195760028114620003245762000344565b600191505062000390565b60ff841115620003385762000338620003f5565b50506001821b62000390565b5060208310610133831016604e8410600b841016171562000369575081810a62000390565b62000375838362000282565b80600019048211156200038c576200038c620003f5565b0290505b92915050565b6000816000190483118215151615620003b357620003b3620003f5565b500290565b600181811c90821680620003cd57607f821691505b60208210811415620003ef57634e487b7160e01b600052602260045260246000fd5b50919050565b634e487b7160e01b600052601160045260246000fd5b610d05806200041b6000396000f3fe608060405234801561001057600080fd5b50600436106100ea5760003560e01c806342966c681161008c578063a457c2d711610066578063a457c2d7146101d0578063a9059cbb146101e3578063dd62ed3e146101f6578063f851a4401461022f57600080fd5b806342966c681461018c57806370a082311461019f57806395d89b41146101c857600080fd5b806323b872dd116100c857806323b872dd14610142578063313ce56714610155578063395093511461016457806340c10f191461017757600080fd5b806306fdde03146100ef578063095ea7b31461010d57806318160ddd14610130575b600080fd5b6100f761025a565b6040516101049190610bfc565b60405180910390f35b61012061011b366004610bbb565b6102ec565b6040519015158152602001610104565b6002545b604051908152602001610104565b610120610150366004610b80565b610302565b60405160128152602001610104565b610120610172366004610bbb565b6103c6565b61018a610185366004610bbb565b610402565b005b61018a61019a366004610be4565b61046a565b6101346101ad366004610b2d565b6001600160a01b031660009081526020819052604090205490565b6100f7610477565b6101206101de366004610bbb565b610486565b6101206101f1366004610bbb565b610537565b610134610204366004610b4e565b6001600160a01b03918216600090815260016020908152604080832093909416825291909152205490565b600554610242906001600160a01b031681565b6040516001600160a01b039091168152602001610104565b60606003805461026990610c7e565b80601f016020809104026020016040519081016040528092919081815260200182805461029590610c7e565b80156102e25780601f106102b7576101008083540402835291602001916102e2565b820191906000526020600020905b8154815290600101906020018083116102c557829003601f168201915b5050505050905090565b60006102f9338484610544565b50600192915050565b600061030f84848461069d565b6001600160a01b0384166000908152600160209081526040808320338452909152902054828110156103ae5760405162461bcd60e51b815260206004820152602860248201527f45524332303a207472616e7366657220616d6f756e742065786365656473206160448201527f6c6c6f77616e636500000000000000000000000000000000000000000000000060648201526084015b60405180910390fd5b6103bb8533858403610544565b506001949350505050565b3360008181526001602090815260408083206001600160a01b038716845290915281205490916102f99185906103fd908690610c4f565b610544565b6005546001600160a01b0316331461045c5760405162461bcd60e51b815260206004820152600a60248201527f6f6e6c792061646d696e0000000000000000000000000000000000000000000060448201526064016103a5565b61046682826108b5565b5050565b6104743382610994565b50565b60606004805461026990610c7e565b3360009081526001602090815260408083206001600160a01b0386168452909152812054828110156105205760405162461bcd60e51b815260206004820152602560248201527f45524332303a2064656372656173656420616c6c6f77616e63652062656c6f7760448201527f207a65726f00000000000000000000000000000000000000000000000000000060648201526084016103a5565b61052d3385858403610544565b5060019392505050565b60006102f933848461069d565b6001600160a01b0383166105bf5760405162461bcd60e51b8152602060048201526024808201527f45524332303a20617070726f76652066726f6d20746865207a65726f2061646460448201527f726573730000000000000000000000000000000000000000000000000000000060648201526084016103a5565b6001600160a01b03821661063b5760405162461bcd60e51b815260206004820152602260248201527f45524332303a20617070726f766520746f20746865207a65726f20616464726560448201527f737300000000000000000000000000000000000000000000000000000000000060648201526084016103a5565b6001600160a01b0383811660008181526001602090815260408083209487168084529482529182902085905590518481527f8c5be1e5ebec7d5bd14f71427d1e84f3dd0314c0f7b2291e5b200ac8c7c3b92591015b60405180910390a3505050565b6001600160a01b0383166107195760405162461bcd60e51b815260206004820152602560248201527f45524332303a207472616e736665722066726f6d20746865207a65726f20616460448201527f647265737300000000000000000000000000000000000000000000000000000060648201526084016103a5565b6001600160a01b0382166107955760405162461bcd60e51b815260206004820152602360248201527f45524332303a207472616e7366657220746f20746865207a65726f206164647260448201527f657373000000000000000000000000000000000000000000000000000000000060648201526084016103a5565b6001600160a01b038316600090815260208190526040902054818110156108245760405162461bcd60e51b815260206004820152602660248201527f45524332303a207472616e7366657220616d6f756e742065786365656473206260448201527f616c616e6365000000000000000000000000000000000000000000000000000060648201526084016103a5565b6001600160a01b0380851660009081526020819052604080822085850390559185168152908120805484929061085b908490610c4f565b92505081905550826001600160a01b0316846001600160a01b03167fddf252ad1be2c89b69c2b068fc378daa952ba7f163c4a11628f55a4df523b3ef846040516108a791815260200190565b60405180910390a350505050565b6001600160a01b03821661090b5760405162461bcd60e51b815260206004820152601f60248201527f45524332303a206d696e7420746f20746865207a65726f20616464726573730060448201526064016103a5565b806002600082825461091d9190610c4f565b90915550506001600160a01b0382166000908152602081905260408120805483929061094a908490610c4f565b90915550506040518181526001600160a01b038316906000907fddf252ad1be2c89b69c2b068fc378daa952ba7f163c4a11628f55a4df523b3ef9060200160405180910390a35050565b6001600160a01b038216610a105760405162461bcd60e51b815260206004820152602160248201527f45524332303a206275726e2066726f6d20746865207a65726f2061646472657360448201527f730000000000000000000000000000000000000000000000000000000000000060648201526084016103a5565b6001600160a01b03821660009081526020819052604090205481811015610a9f5760405162461bcd60e51b815260206004820152602260248201527f45524332303a206275726e20616d6f756e7420657863656564732062616c616e60448201527f636500000000000000000000000000000000000000000000000000000000000060648201526084016103a5565b6001600160a01b0383166000908152602081905260408120838303905560028054849290610ace908490610c67565b90915550506040518281526000906001600160a01b038516907fddf252ad1be2c89b69c2b068fc378daa952ba7f163c4a11628f55a4df523b3ef90602001610690565b80356001600160a01b0381168114610b2857600080fd5b919050565b600060208284031215610b3e578081fd5b610b4782610b11565b9392505050565b60008060408385031215610b60578081fd5b610b6983610b11565b9150610b7760208401610b11565b90509250929050565b600080600060608486031215610b94578081fd5b610b9d84610b11565b9250610bab60208501610b11565b9150604084013590509250925092565b60008060408385031215610bcd578182fd5b610bd683610b11565b946020939093013593505050565b600060208284031215610bf5578081fd5b5035919050565b6000602080835283518082850152825b81811015610c2857858101830151858201604001528201610c0c565b81811115610c395783604083870101525b50601f01601f1916929092016040019392505050565b60008219821115610c6257610c62610cb9565b500190565b600082821015610c7957610c79610cb9565b500390565b600181811c90821680610c9257607f821691505b60208210811415610cb357634e487b7160e01b600052602260045260246000fd5b50919050565b634e487b7160e01b600052601160045260246000fdfea26469706673582212207ff1a7c9dfc4eeaad1f9f082a93088cca726b480b21900ff290886e9ed77bd9c64736f6c63430008040033",
  "linkReferences": {},
  "deployedLinkReferences": {}
}