{
  "_format": "hh-sol-artifact-1",
  "contractName": "Counter",
  "sourceName": "contracts/FactoryContract.sol",
  "abi": [
    {
      "inputs": [
        {
          "internalType": "address",
          "name": "owner",
          "type": "address"
        }
      ],
      "stateMutability": "nonpayable",
      "type": "constructor"
    },
    {
      "inputs": [],
      "name": "getCount",
      "outputs": [
        {
          "internalType": "uint256",
          "name": "",
          "type": "uint256"
        }
      ],
      "stateMutability": "view",
      "type": "function"
    },
    {
      "inputs": [
        {
          "internalType": "address",
          "name": "caller",
          "type": "address"
        }
      ],
      "name": "increment",
      "outputs": [],
      "stateMutability": "nonpayable",
      "type": "function"
    }
  ],
  "bytecode": "0x608060405234801561001057600080fd5b506040516102ca3803806102ca83398101604081905261002f9161005d565b600180546001600160a01b039092166001600160a01b0319928316179055600280549091163317905561008d565b60006020828403121561006f57600080fd5b81516001600160a01b038116811461008657600080fd5b9392505050565b61022e8061009c6000396000f3fe608060405234801561001057600080fd5b50600436106100365760003560e01c806345f43dd81461003b578063a87d942c14610050575b600080fd5b61004e610049366004610179565b610065565b005b60005460405190815260200160405180910390f35b60025473ffffffffffffffffffffffffffffffffffffffff1633146100d15760405162461bcd60e51b815260206004820152601d60248201527f596f75206e65656420746f20757365722074686520666163746f72792e00000060448201526064015b60405180910390fd5b600154819073ffffffffffffffffffffffffffffffffffffffff8083169116146101635760405162461bcd60e51b815260206004820152602560248201527f596f75277265206e6f7420746865206f776e6572206f662074686520636f6e7460448201527f726163742e00000000000000000000000000000000000000000000000000000060648201526084016100c8565b6000808154610171906101b6565b909155505050565b60006020828403121561018b57600080fd5b813573ffffffffffffffffffffffffffffffffffffffff811681146101af57600080fd5b9392505050565b60006000198214156101f1577f4e487b7100000000000000000000000000000000000000000000000000000000600052601160045260246000fd5b506001019056fea2646970667358221220f366e2f6854c3e303a5c0f42a44289e940362b3b524d2a5634832a55debdd20064736f6c63430008060033",
  "linkReferences": {},
  "deployedLinkReferences": {}
}