{
  "_format": "hh-sol-artifact-1",
  "contractName": "FactoryContract",
  "sourceName": "contracts/FactoryContract.sol",
  "abi": [
    {
      "inputs": [],
      "name": "createCounter",
      "outputs": [],
      "stateMutability": "nonpayable",
      "type": "function"
    },
    {
      "inputs": [
        {
          "internalType": "address",
          "name": "account",
          "type": "address"
        }
      ],
      "name": "getCount",
      "outputs": [
        {
          "internalType": "uint256",
          "name": "",
          "type": "uint256"
        }
      ],
      "stateMutability": "view",
      "type": "function"
    },
    {
      "inputs": [],
      "name": "getMyCount",
      "outputs": [
        {
          "internalType": "uint256",
          "name": "",
          "type": "uint256"
        }
      ],
      "stateMutability": "view",
      "type": "function"
    },
    {
      "inputs": [
        {
          "internalType": "address",
          "name": "account",
          "type": "address"
        }
      ],
      "name": "increment",
      "outputs": [],
      "stateMutability": "nonpayable",
      "type": "function"
    }
  ],
  "bytecode": "0x608060405234801561001057600080fd5b50610620806100206000396000f3fe608060405234801561001057600080fd5b506004361061004c5760003560e01c806345f43dd8146100515780634f0cd27b146100665780634fc9fd501461008b57806378b5294814610093575b600080fd5b61006461005f3660046102d7565b61009b565b005b6100796100743660046102d7565b61014a565b60405190815260200160405180910390f35b610079610216565b610064610226565b6001600160a01b03818116600090815260208190526040902054166100bf57600080fd5b6001600160a01b03818116600081815260208190526040908190205490517f45f43dd80000000000000000000000000000000000000000000000000000000081526004810192909252909116906345f43dd890602401600060405180830381600087803b15801561012f57600080fd5b505af1158015610143573d6000803e3d6000fd5b5050505050565b6001600160a01b0381811660009081526020819052604081205490911661017057600080fd5b6001600160a01b03808316600090815260208181526040918290205482517fa87d942c000000000000000000000000000000000000000000000000000000008152925193169263a87d942c926004808201939291829003018186803b1580156101d857600080fd5b505afa1580156101ec573d6000803e3d6000fd5b505050506040513d601f19601f820116820180604052508101906102109190610307565b92915050565b60006102213361014a565b905090565b336000908152602081905260409020546001600160a01b03161561024957600080fd5b33604051610256906102ca565b6001600160a01b039091168152602001604051809103906000f080158015610282573d6000803e3d6000fd5b5033600090815260208190526040902080547fffffffffffffffffffffffff0000000000000000000000000000000000000000166001600160a01b0392909216919091179055565b6102ca8061032183390190565b6000602082840312156102e957600080fd5b81356001600160a01b038116811461030057600080fd5b9392505050565b60006020828403121561031957600080fd5b505191905056fe608060405234801561001057600080fd5b506040516102ca3803806102ca83398101604081905261002f9161005d565b600180546001600160a01b039092166001600160a01b0319928316179055600280549091163317905561008d565b60006020828403121561006f57600080fd5b81516001600160a01b038116811461008657600080fd5b9392505050565b61022e8061009c6000396000f3fe608060405234801561001057600080fd5b50600436106100365760003560e01c806345f43dd81461003b578063a87d942c14610050575b600080fd5b61004e610049366004610179565b610065565b005b60005460405190815260200160405180910390f35b60025473ffffffffffffffffffffffffffffffffffffffff1633146100d15760405162461bcd60e51b815260206004820152601d60248201527f596f75206e65656420746f20757365722074686520666163746f72792e00000060448201526064015b60405180910390fd5b600154819073ffffffffffffffffffffffffffffffffffffffff8083169116146101635760405162461bcd60e51b815260206004820152602560248201527f596f75277265206e6f7420746865206f776e6572206f662074686520636f6e7460448201527f726163742e00000000000000000000000000000000000000000000000000000060648201526084016100c8565b6000808154610171906101b6565b909155505050565b60006020828403121561018b57600080fd5b813573ffffffffffffffffffffffffffffffffffffffff811681146101af57600080fd5b9392505050565b60006000198214156101f1577f4e487b7100000000000000000000000000000000000000000000000000000000600052601160045260246000fd5b506001019056fea2646970667358221220f366e2f6854c3e303a5c0f42a44289e940362b3b524d2a5634832a55debdd20064736f6c63430008060033a2646970667358221220fae633aabcb1dbea8f3e10b37d453da3414e9d65196a02e1292afaf713044d9264736f6c63430008060033",
  "linkReferences": {},
  "deployedLinkReferences": {}
}