{
  "_format": "hh-sol-artifact-1",
  "contractName": "FirstCaller",
  "sourceName": "contracts/ContextSwitcher.sol",
  "abi": [
    {
      "inputs": [
        {
          "internalType": "address",
          "name": "_base",
          "type": "address"
        },
        {
          "internalType": "uint256",
          "name": "_num",
          "type": "uint256"
        }
      ],
      "name": "callSetNum",
      "outputs": [],
      "stateMutability": "nonpayable",
      "type": "function"
    },
    {
      "inputs": [
        {
          "internalType": "address",
          "name": "_base",
          "type": "address"
        },
        {
          "internalType": "uint256",
          "name": "_num",
          "type": "uint256"
        }
      ],
      "name": "delegatecallSetNum",
      "outputs": [],
      "stateMutability": "nonpayable",
      "type": "function"
    },
    {
      "inputs": [],
      "name": "num",
      "outputs": [
        {
          "internalType": "uint256",
          "name": "",
          "type": "uint256"
        }
      ],
      "stateMutability": "view",
      "type": "function"
    },
    {
      "inputs": [],
      "name": "sender",
      "outputs": [
        {
          "internalType": "address",
          "name": "",
          "type": "address"
        }
      ],
      "stateMutability": "view",
      "type": "function"
    },
    {
      "inputs": [
        {
          "internalType": "address",
          "name": "_base",
          "type": "address"
        },
        {
          "internalType": "uint256",
          "name": "_num",
          "type": "uint256"
        }
      ],
      "name": "setBaseNum",
      "outputs": [],
      "stateMutability": "nonpayable",
      "type": "function"
    }
  ],
  "bytecode": "0x608060405234801561001057600080fd5b50610346806100206000396000f3fe608060405234801561001057600080fd5b50600436106100675760003560e01c80634e70b1dc116100505780634e70b1dc1461009457806367e404ce146100b0578063ff04162c146100db57600080fd5b80631efcc0151461006c5780633433356014610081575b600080fd5b61007f61007a3660046102a1565b6100ee565b005b61007f61008f3660046102a1565b61016e565b61009d60005481565b6040519081526020015b60405180910390f35b6001546100c3906001600160a01b031681565b6040516001600160a01b0390911681526020016100a7565b61007f6100e93660046102a1565b610222565b60405163cd16ecbf60e01b81526004810182905282906001600160a01b0382169063cd16ecbf90602401600060405180830381600087803b15801561013257600080fd5b505af1158015610146573d6000803e3d6000fd5b50506001805473ffffffffffffffffffffffffffffffffffffffff1916331790555050505050565b60405163cd16ecbf60e01b6020820152602481018290526000906001600160a01b0384169060440160408051601f19818403018152908290526101b0916102d7565b600060405180830381855af49150503d80600081146101eb576040519150601f19603f3d011682016040523d82523d6000602084013e6101f0565b606091505b50509050806101fe57600080fd5b50506001805473ffffffffffffffffffffffffffffffffffffffff19163317905550565b60405163cd16ecbf60e01b6020820152602481018290526000906001600160a01b0384169060440160408051601f1981840301815290829052610264916102d7565b6000604051808303816000865af19150503d80600081146101eb576040519150601f19603f3d011682016040523d82523d6000602084013e6101f0565b600080604083850312156102b3578182fd5b82356001600160a01b03811681146102c9578283fd5b946020939093013593505050565b60008251815b818110156102f757602081860181015185830152016102dd565b818111156103055782828501525b50919091019291505056fea26469706673582212209f72fa44b19a4e4b90e10e35587cfa8f098730a36f6135b31e1307af2331bc2764736f6c63430008040033",
  "linkReferences": {},
  "deployedLinkReferences": {}
}