{
  "_format": "hh-sol-artifact-1",
  "contractName": "SecondCaller",
  "sourceName": "contracts/ContextSwitcher.sol",
  "abi": [
    {
      "inputs": [
        {
          "internalType": "contract FirstCaller",
          "name": "_fc",
          "type": "address"
        },
        {
          "internalType": "contract Base",
          "name": "_base",
          "type": "address"
        },
        {
          "internalType": "uint256",
          "name": "_num",
          "type": "uint256"
        }
      ],
      "name": "callThrough",
      "outputs": [],
      "stateMutability": "nonpayable",
      "type": "function"
    }
  ],
  "bytecode": "0x608060405234801561001057600080fd5b5061016d806100206000396000f3fe608060405234801561001057600080fd5b506004361061002b5760003560e01c8063b5feb4e914610030575b600080fd5b61004361003e3660046100d2565b610045565b005b6040517f3433356000000000000000000000000000000000000000000000000000000000815273ffffffffffffffffffffffffffffffffffffffff838116600483015260248201839052841690633433356090604401600060405180830381600087803b1580156100b557600080fd5b505af11580156100c9573d6000803e3d6000fd5b50505050505050565b6000806000606084860312156100e6578283fd5b83356100f181610112565b9250602084013561010181610112565b929592945050506040919091013590565b73ffffffffffffffffffffffffffffffffffffffff8116811461013457600080fd5b5056fea26469706673582212201338b9ccf71a3a904036473b5096e8bb03a4a750fa6256f520573c121507bc7f64736f6c63430008040033",
  "linkReferences": {},
  "deployedLinkReferences": {}
}